:100000000C9462000C948A000C948A000C948A0070
:100010000C948A000C948A000C948A000C948A0038
:100020000C948A000C948A000C948A000C948A0028
:100030000C948A000C948A000C948A000C948A0018
:100040000C941E040C948A000C94EC030C94C603CC
:100050000C948A000C948A000C948A000C948A00F8
:100060000C948A000C948A000000000024002700F1
:100070002A0000000000250028002B0000000000DE
:1000800023002600290004040404040404040202DA
:100090000202020203030303030301020408102007
:1000A0004080010204081020010204081020000012
:1000B0000008000201000003040700000000000027
:1000C0000000680411241FBECFEFD8E0DEBFCDBF13
:1000D00011E0A0E0B1E0EAE2F0E102C005900D928B
:1000E000AC35B107D9F722E0ACE5B1E001C01D9213
:1000F000A635B207E1F710E0C2E6D0E004C02197D0
:10010000FE010E940D08C136D107C9F70E94A7045D
:100110000C9413080C940000E3E7F1E0A089B18986
:1001200082E08C93A485B5851C92A685B7858FEC5B
:100130008C93108EA489B58986E08C93A289B389AB
:100140008C9180618C93A289B3898C9188608C9307
:10015000A289B3898C9180688C930288F389E02D01
:1001600080818F7D80830895AF92BF92CF92DF927E
:10017000EF92FF920F931F93CF93DF936C017B015C
:100180008B01040F151FEB015E01AE18BF08C017ED
:10019000D10759F06991D601ED91FC910190F08160
:1001A000E02DC6010995892B79F7C501DF91CF9123
:1001B0001F910F91FF90EF90DF90CF90BF90AF9085
:1001C0000895FC01538D448D252F30E0842F90E05D
:1001D000821B930B541710F0CF9608950197089542
:1001E000FC01918D828D981761F0A28DAE0FBF2F0B
:1001F000B11D5D968C91928D9F5F9F73928F90E061
:1002000008958FEF9FEF0895FC01918D828D9817CF
:1002100031F0828DE80FF11D858D90E008958FEF0C
:100220009FEF0895FC01918D228D892F90E0805CD5
:100230009F4F821B91098F739927089583E791E05F
:100240000E94120121E0892B09F420E0822F0895F9
:1002500080E090E0892B29F00E941E0181110C940E
:1002600000000895FC01A48DA80FB92FB11DA35A59
:10027000BF4F2C91848D90E001968F739927848FC6
:10028000A689B7892C93A089B1898C9183708064E9
:100290008C93938D848D981306C00288F389E02D8A
:1002A00080818F7D80830895EF92FF920F931F933B
:1002B000CF93DF93EC0181E0888F9B8D8C8D981319
:1002C0001AC0E889F989808185FF15C09FB7F89425
:1002D000EE89FF896083E889F98980818370806471
:1002E00080839FBF81E090E0DF91CF911F910F91BC
:1002F000FF90EF900895F62E0B8D10E00F5F1F4FCB
:100300000F731127E02E8C8D8E110CC00FB607FCD9
:10031000FACFE889F989808185FFF5CFCE010E9467
:100320003201F1CFEB8DEC0FFD2FF11DE35AFF4FA2
:10033000F0829FB7F8940B8FEA89FB8980818062F5
:10034000CFCFCF93DF93EC01888D8823B9F0AA89B2
:10035000BB89E889F9898C9185FD03C0808186FD80
:100360000DC00FB607FCF7CF8C9185FFF2CF8081CF
:1003700085FFEDCFCE010E943201E9CFDF91CF9111
:100380000895833081F028F4813099F08230A9F00B
:1003900008958730A9F08830C9F08430B1F4809195
:1003A00080008F7D03C0809180008F7780938000D4
:1003B000089584B58F7784BD089584B58F7DFBCF74
:1003C0008091B0008F778093B00008958091B00045
:1003D0008F7DF9CFCF93DF93282F30E0F901E255DD
:1003E000FF4F8491F901E656FF4FD491F901EA5786
:1003F000FF4FC491CC23A1F081110E94C101EC2FC9
:10040000F0E0EE0FFF1FE458FF4FA591B491EC917F
:10041000ED2381E090E009F480E0DF91CF91089531
:1004200080E090E0FACF1F93CF93DF93282F30E046
:10043000F901E255FF4F8491F901E656FF4FD4913F
:10044000F901EA57FF4FC491CC23A9F0162F81116F
:100450000E94C101EC2FF0E0EE0FFF1FEE58FF4F9E
:10046000A591B4918FB7F894EC91111108C0D09573
:10047000DE23DC938FBFDF91CF911F910895DE2B98
:10048000F8CFCF93DF9390E0FC01E656FF4F249125
:100490008A579F4FFC0184918823C9F090E0880F10
:1004A000991FFC01E859FF4FA591B491FC01EE584A
:1004B000FF4FC591D49161110DC09FB7F8948C91F5
:1004C000209582238C938881282328839FBFDF91E6
:1004D000CF910895623051F49FB7F8943C91822FE8
:1004E000809583238C93E8812E2BEFCF8FB7F894E0
:1004F000EC912E2B2C938FBFEACF8E50806480938B
:100500007C0080917A00806480937A0080917A00E8
:1005100086FDFCCF809178009091790008953FB7D7
:10052000F8948091610190916201A0916301B09172
:10053000640126B5A89B05C02F3F19F00196A11DA7
:10054000B11D3FBFBA2FA92F982F8827BC01CD011D
:10055000620F711D811D911D42E0660F771F881F7C
:10056000991F4A95D1F708958F929F92AF92BF92AB
:10057000CF92DF92EF92FF926B017C010E948F027B
:100580004B015C01C114D104E104F104B9F00E94F3
:100590008F02681979098A099B09683E73408105B1
:1005A000910580F321E0C21AD108E108F10888EE34
:1005B000880E83E0981EA11CB11CE4CFFF90EF9041
:1005C000DF90CF90BF90AF909F908F9008952FB7FE
:1005D000F89460915D0170915E0180915F0190914E
:1005E00060012FBF0895FC0101900020E9F73197C9
:1005F000AF01481B590BBC0183E791E00C94B40098
:100600008F929F92AF92BF920F931F93CF93DF93DE
:10061000CDB7DEB7A1970FB6F894DEBF0FBECDBF42
:1006200019A2423008F44AE08E010F5D1F4F842E5C
:10063000912CB12CA12CA50194010E94B607E62FA4
:10064000B901CA01EA30F4F4E05DD801EE938D01FE
:10065000232B242B252B79F790E080E0109719F0BD
:10066000CD010E94F302A1960FB6F894DEBF0FBE33
:10067000CDBFDF91CF911F910F91BF90AF909F9011
:100680008F900895E95CE1CF0C94F302CF92DF9252
:10069000EF92FF92CF93DF936C01990FEE08FF0862
:1006A000F7FE1FC06DE283E791E00E945401EC0168
:1006B00066277727CB016C197D098E099F094AE0CF
:1006C0000E940003C80FD91F82E191E00E94F3024B
:1006D0008C0F9D1FDF91CF91FF90EF90DF90CF9017
:1006E00008954AE0C701B6010E940003EC01ECCF77
:1006F000EF92FF920F931F93CF93DF9300D000D020
:10070000CDB7DEB783E791E00E94F00083E791E088
:100710000E94F0008E010F5F1F4F78018A3341F075
:10072000F80181938F0183E791E00E94F000F6CFFA
:10073000C7010E949007182F83E791E00E94F00004
:100740008053990B8230910520F4682F812F0E94ED
:10075000130283E791E00E94F0008A3011F08D309F
:10076000C1F783E791E00E9404018A3021F483E716
:1007700091E00E94F0000F900F900F900F90DF918A
:10078000CF911F910F91FF90EF9008951F920F92BC
:100790000FB60F9211242F933F934F935F936F9354
:1007A0007F938F939F93AF93BF93EF93FF9383E7D1
:1007B00091E00E943201FF91EF91BF91AF919F9123
:1007C0008F917F916F915F914F913F912F910F90FA
:1007D0000FBE0F901F9018951F920F920FB60F9299
:1007E00011242F938F939F93EF93FF93E0918301B5
:1007F000F09184018081E0918901F0918A0182FD6C
:100800001BC0908180918C018F5F8F7320918D012F
:10081000821741F0E0918C01F0E0ED58FE4F958F8A
:1008200080938C01FF91EF919F918F912F910F9069
:100830000FBE0F901F9018958081F4CF1F920F92DA
:100840000FB60F9211242F933F938F939F93AF93E3
:10085000BF9380915D0190915E01A0915F01B09185
:10086000600130915C0123E0230F2D3758F501968C
:10087000A11DB11D20935C0180935D0190935E01E9
:10088000A0935F01B093600180916101909162013A
:10089000A0916301B09164010196A11DB11D8093E7
:1008A000610190936201A0936301B0936401BF91D1
:1008B000AF919F918F913F912F910F900FBE0F900D
:1008C0001F90189526E8230F0296A11DB11DD2CFC7
:1008D000E3E7F1E01382128288EE93E0A0E0B0E05B
:1008E00084839583A683B78384E091E0918380839A
:1008F00085EC90E09587848784EC90E097878687E5
:1009000080EC90E0918B808B81EC90E0938B828BDC
:1009100082EC90E0958B848B86EC90E0978B868BB5
:10092000118E128E138E148EE0E1F2E01682178281
:1009300010861186128613861486158616861786EB
:10094000108A118A128A138A148A158A0895789453
:1009500084B5826084BD84B5816084BD85B58260C4
:1009600085BD85B5816085BD80916E008160809375
:100970006E001092810080918100826080938100DE
:1009800080918100816080938100809180008160EE
:10099000809380008091B10084608093B100809149
:1009A000B00081608093B00080917A008460809371
:1009B0007A0080917A00826080937A0080917A0038
:1009C000816080937A0080917A00806880937A00B9
:1009D0001092C100109252021092530210925402CF
:1009E00010925502109212021092130210921402E9
:1009F000109215020E94E7026B017C014B015C0121
:100A000028EB820E2BE0921EA11CB11C0E94E70273
:100A10006C157D058E059F0528F086169706A8069D
:100A2000B906A0F768EE73E080E090E00E94B4029F
:100A30000E948C000E94E7026093120270931302DE
:100A4000809314029093150285E191E00E94440383
:100A50000E94E7026B017C014B015C013AE0830ECE
:100A6000911CA11CB11C0E94E7026C157D058E052E
:100A70009F0528F086169706A806B906A0F781E01C
:100A8000809326020E94E702609312027093130281
:100A9000809314029093150286E291E00E94440331
:100AA0000E948C0062E084E00E94410261E085E0E7
:100AB0000E94410261E086E00E94410260E087E01E
:100AC0000E944102CC24CA9483E0D82EE12CF12C60
:100AD000C0E0D0E00E94E702672B682B692B09F485
:100AE000F4C00E94E70280906F0190907001A09086
:100AF0007101B0907201681579058A059B0508F4AB
:100B000001C280906F0190907001A0907101B0902F
:100B100072019B01AC01281939094A095B09490195
:100B20005A013AEF83169104A104B10408F4D5C028
:100B300060936F01709370018093710190937201C3
:100B400084EF91E0A0E0B0E080931E0290931F023A
:100B5000A0932002B093210210922202109223024D
:100B60001092240210922502809116029091170291
:100B7000A0911802B091190280931A0290931B025F
:100B8000A0931C02B0931D020E94E702609316021C
:100B900070931702809318029093190283E791E0F3
:100BA0000E940401843611F40E9478030E94E70237
:100BB00060931202709313028093140290931502B3
:100BC0000E94E7024B015C018DE291E00E94440328
:100BD0004AE061E070E080E090E00E94000384E37E
:100BE00091E00E9444034AE0C501B4010E94000361
:100BF00086E391E00E9444038091160290911702CF
:100C0000A0911802B0911902A5019401281B390B7B
:100C10004A0B5B0BCA01B9014AE00E94000386E35C
:100C200091E00E9444036091160270911702809136
:100C300018029091190280901A0290901B02A090C5
:100C40001C02B0901D02681979098A099B094AE0C3
:100C50000E94000388E391E00E9444030E94E7029F
:100C60004AE00E9400038AE391E00E94F30282E1DD
:100C700091E00E94F3020E94E7024B015C012B010C
:100C80003C0135E0430E511C611C711C0E94E702BF
:100C9000681579058A059B0528F0461657066806EB
:100CA0007906A0F783E791E00E940401843611F4ED
:100CB0000E9478030E94E702609316027093170265
:100CC000809318029093190208C00E94E7026230D4
:100CD00071058105910508F004CF8EE00E947D0228
:100CE0002DEC30E0DC010E940608A70196010E946D
:100CF000D80721573D4F4F4F5F4F30936C012093E2
:100D00006B018FE00E947D022DEC30E0DC010E943F
:100D10000608A70196010E94D80721573D4F4F4F63
:100D20005F4F30936A012093690180E10E947D0248
:100D30002DEC30E0DC010E940608A70196010E941C
:100D4000D80721573D4F4F4F5F4F30936801209395
:100D5000670181E10E947D029093660180936501A5
:100D600081E491E00E94F30282E191E00E94F302AB
:100D700088E491E00E94440380916B0190916C01A2
:100D80000E9446038DE491E00E9444038091690132
:100D900090916A010E94460382E591E00E9444031B
:100DA00080916701909168010E94460387E591E078
:100DB0000E94440380916501909166010E94460360
:100DC00080916D01811151C084E00E94EA01892B5C
:100DD00009F06EC081E080936D0161E086E00E94C1
:100DE000130261E085E00E94130264E670E080E097
:100DF00090E00E94B40260E085E00E94130264E685
:100E000070E080E090E00E94B40261E085E00E9422
:100E1000130264E670E080E090E00E94B40260E0BB
:100E200085E00E94130264E670E080E090E00E949A
:100E3000B40261E085E00E94130264E670E080E0A5
:100E400090E00E94B40260E085E00E94130264E634
:100E500070E080E090E00E94B40261E085E00E94D2
:100E6000130280916D01882319F184E00E94EA0148
:100E7000892BF1F410926D0160E086E00E9413026C
:100E800060E085E00E94130264E670E080E090E09C
:100E90000E94B40261E085E00E94130264E670E003
:100EA00080E090E00E94B40260E085E00E941302BE
:100EB00087E00E94EA01019771F160E086E00E94FC
:100EC000130281E080936E0168EC70E080E090E0B6
:100ED0000E94B40280916E01882349F084E00E9450
:100EE000EA01892B21F461E088E00E944102209709
:100EF00009F4F0CD0E941E01882309F4EBCD0E9475
:100F00000000E8CD60936F017093700180937101D0
:100F100090937201F6CD68EE73E080E090E0D8CF58
:100F2000FC0188279927E89421912032E9F32930A0
:100F300010F02E30C8F32B3241F02D3239F4689482
:100F400004C00E94AE07820F911D219120532A30C8
:100F5000C0F31EF4909581959F4F08957AE0979F76
:100F6000902D879F802D910D11240895A1E21A2EB6
:100F7000AA1BBB1BFD010DC0AA1FBB1FEE1FFF1F3D
:100F8000A217B307E407F50720F0A21BB30BE40B8D
:100F9000F50B661F771F881F991F1A9469F76095D4
:100FA0007095809590959B01AC01BD01CF0108958E
:100FB000052E97FB1EF400940E94EF0757FD07D003
:100FC0000E94B60707FC03D04EF40C94EF0750952F
:100FD0004095309521953F4F4F4F5F4F0895909525
:100FE0008095709561957F4F8F4F9F4F0895A29F79
:100FF000B001B39FC001A39F700D811D1124911DED
:10100000B29F700D811D1124911D08950E94F70754
:10101000B7FF0895821B930B0895EE0FFF1F0590F5
:0A102000F491E02D0994F894FFCF3D
:10102A00000000005401B400E100A1011201F00027
:10103A0004010D0A00564D4450565F317C315F560B
:10104A004D4450560A00564D4450525F00564D4486
:10105A0050455F003A323A007C005F564D44504595
:10106A00002F2F2F2F2F2F0053313A200053323ABF
:0C107A00200053333A200058533A200065
:107800000C94343C0C94513C0C94513C0C94513CE1
:107810000C94513C0C94513C0C94513C0C94513CB4
:107820000C94513C0C94513C0C94513C0C94513CA4
:107830000C94513C0C94513C0C94513C0C94513C94
:107840000C94513C0C94513C0C94513C0C94513C84
:107850000C94513C0C94513C0C94513C0C94513C74
:107860000C94513C0C94513C11241FBECFEFD8E036
:10787000DEBFCDBF11E0A0E0B1E0ECE9FFE702C060
:1078800005900D92A230B107D9F712E0A2E0B1E065
:1078900001C01D92AD30B107E1F70E942D3D0C945F
:1078A000CC3F0C94003C982F959595959595959582
:1078B000905D8F708A307CF0282F295A8091C0000B
:1078C00085FFFCCF9093C6008091C00085FFFCCF60
:1078D0002093C6000895282F205DF0CF982F809127
:1078E000C00085FFFCCF9093C6000895EF92FF92F1
:1078F0000F931F93EE24FF2487018091C00087FD22
:1079000017C00894E11CF11C011D111D81E4E8164B
:1079100082E4F8068FE0080780E0180770F3E09132
:107920000401F091050109958091C00087FFE9CF1E
:107930008091C6001F910F91FF90EF9008950E94D3
:10794000763C982F8091C00085FFFCCF9093C600B5
:1079500091362CF490330CF09053892F089597555D
:10796000892F08951F930E949F3C182F0E949F3CCF
:107970001295107F810F1F9108951F93182F882350
:1079800021F00E94763C1150E1F71F9108951F935A
:10799000182F0E94763C803249F0809103018F5F5E
:1079A000809303018530C1F01F9108958091C0003C
:1079B00085FFFCCF84E18093C6008091C00085FFE5
:1079C000FCCF1093C6008091C00085FFFCCF80E102
:1079D0008093C6001F910895E0910401F091050184
:1079E00009951F9108950E94763C803241F0809164
:1079F00003018F5F80930301853081F008958091AA
:107A0000C00085FFFCCF84E18093C6008091C00058
:107A100085FFFCCF80E18093C6000895E0910401CA
:107A2000F09105010995089540E951E08823A1F0FE
:107A30002D9A28EE33E0FA013197F1F721503040CA
:107A4000D1F72D9828EE33E0FA013197F1F7215064
:107A50003040D1F7815061F708953F924F925F9285
:107A60006F927F928F929F92AF92BF92CF92DF924E
:107A7000EF92FF920F931F93CF93DF93000080E16B
:107A80008093C4001092C50088E18093C10086E015
:107A90008093C2005098589A259A81E00E94143D24
:107AA00024E1F22E9EE1E92E85E9D82E0FE0C02ECA
:107AB00010E1B12EAA24A394B1E49B2EA6E58A2E50
:107AC000F2E57F2EE0E26E2E79E4572E63E5462E36
:107AD00050E5352E0E94763C8033B1F18133B9F107
:107AE000803409F46FC0813409F476C0823409F41B
:107AF00085C0853409F488C0803531F1823521F1A3
:107B0000813511F1853509F485C0863509F48DC0BC
:107B1000843609F496C0843709F403C1853709F423
:107B200072C1863709F466C0809103018F5F80932C
:107B30000301853079F6E0910401F0910501099582
:107B40000E94763C803351F60E94F33CC3CF0E94E2
:107B5000763C803249F78091C00085FFFCCFF092DF
:107B6000C6008091C00085FFFCCF9092C600809136
:107B7000C00085FFFCCF8092C6008091C00085FFC9
:107B8000FCCF7092C6008091C00085FFFCCF609250
:107B9000C6008091C00085FFFCCF5092C600809146
:107BA000C00085FFFCCF4092C6008091C00085FFD9
:107BB000FCCF3092C6008091C00085FFFCCFB09210
:107BC000C60088CF0E94763C863808F4BDCF0E945C
:107BD000763C0E94F33C7ECF0E94763C803809F4CC
:107BE0009CC0813809F40BC1823809F43CC1883942
:107BF00009F48FC080E00E94C73C6CCF84E10E94F2
:107C0000BD3C0E94F33C66CF85E00E94BD3C0E94D3
:107C1000F33C60CF0E94763C809306010E94763C44
:107C2000809307010E94F33C55CF0E94763C80333D
:107C300009F41DC183E00E94BD3C80E00E94C73C66
:107C400049CF0E94763C809309020E94763C809343
:107C5000080280910C028E7F80930C020E94763C79
:107C6000853409F415C18091080290910902892B8D
:107C700089F000E010E00E94763CF801E85FFE4FDA
:107C800080830F5F1F4F80910802909109020817AF
:107C9000190788F30E94763C803209F045CF809125
:107CA0000C0280FF01C16091060170910701660F0F
:107CB000771F7093070160930601A0910802B091AD
:107CC00009021097C9F0E8E0F1E09B01AD014E0F09
:107CD0005F1FF999FECF32BD21BD819180BDFA9A17
:107CE000F99A2F5F3F4FE417F50799F76A0F7B1F4B
:107CF00070930701609306018091C00085FFFCCF5F
:107D0000F092C6008091C00085FFFCCFB092C60003
:107D1000E1CE83E00E94C73CDDCE82E00E94C73CFA
:107D2000D9CE0E94763C809309020E94763C8093D3
:107D300008028091060190910701880F991F909386
:107D40000701809306010E94763C853409F4A6C0A1
:107D500080910C028E7F80930C020E94763C8032D0
:107D600009F0B8CE8091C00085FFFCCFF092C6002C
:107D7000609108027091090261157105B9F140E046
:107D800050E080910C02A82FA170B82FB27011C0E2
:107D9000BB2309F45CC0E0910601F0910701319624
:107DA000F0930701E09306014F5F5F4F46175707B7
:107DB000E8F4AA2369F3F999FECF209106013091E6
:107DC000070132BD21BDF89A90B58091C00085FFB2
:107DD000FCCF9093C6002F5F3F4F30930701209355
:107DE00006014F5F5F4F4617570718F38091C00099
:107DF00085FDE5CE8091C00085FFF8CFE0CE81E023
:107E00000E94C73C67CE0E94763C803209F08CCE3F
:107E10008091C00085FFFCCFF092C6008091C00029
:107E200085FFFCCFE092C6008091C00085FFFCCFAB
:107E3000D092C6008091C00085FFFCCFC092C600E2
:107E40008091C00085FFFCCFB092C60043CEE09188
:107E50000601F091070194918091C00085FFFCCF4D
:107E60009093C6009CCF80E10E94C73C33CE0E9415
:107E7000763C0E94763C182F0E94763C112309F430
:107E800083C0113009F484C08FE00E94C73C22CE29
:107E900080910C02816080930C02E5CE80910C02EF
:107EA000816080930C0259CF809107018823880F4D
:107EB000880B8A2180930B02809106019091070123
:107EC000880F991F90930701809306018091080203
:107ED00080FF09C080910802909109020196909359
:107EE000090280930802F894F999FECF1127E091D6
:107EF0000601F0910701C8E0D1E08091080290915D
:107F00000902103091F40091570001700130D9F34B
:107F100003E000935700E89500915700017001308D
:107F2000D9F301E100935700E89509901990009169
:107F3000570001700130D9F301E000935700E89534
:107F40001395103498F011270091570001700130FB
:107F5000D9F305E000935700E895009157000170B0
:107F60000130D9F301E100935700E895329602976A
:107F700009F0C7CF103011F00296E5CF112480919F
:107F8000C00085FFB9CEBCCE8EE10E94C73CA2CD19
:0C7F900085E90E94C73C9ECDF894FFCF0D
:027F9C00800063
:040000030000780081
:00000001FF